:100000000C945D000C94EE000C9436010C94EE0000
:100010000C944A010C94EE000C94EE000C94EE004B
:100020000C94EE000C94EE000C94EE000C94EE0098
:100030000C94EE000C94EE000C94EE000C94EE0088
:100040000C94EE000C94EE000C94EE000C94EE0078
:100050000C94EE000C94EE000C94EE000C94EE0068
:100060000C94EE000C94EE000C9427010C94EE001E
:100070000C94EE000C94EE000C94EE000C94EE0048
:100080000C94EE000C94EE000C94EE00B600B3005D
:10009000AD00A600A000980057656C636F6D650009
:1000A00041626F72740046696E69736800537461CF
:1000B0007274004E4F004F4B000011241FBECFEF53
:1000C000D0E1DEBFCDBFF894929A939A1D9A1C9A04
:1000D000A49AAC9AA59AAD9AA69AAE9AE1E6F0E0F7
:1000E000808180688083A2E6B0E08C9180688C93E8
:1000F0008081806480838C9180648C938081806215
:1001000080838C9180628C938F9A44E650E0EA0160
:10011000888181608883888182608883889A8881C9
:100120008061888385E690E0EC0128812061288346
:10013000EA01288128602883EC012881286028832F
:10014000BE9ABD9ABC9AC49ABB9ABA9AB89A179AA0
:100150008081816080838C9181608C9380818260BA
:1001600080838081846080838C9184608C93919A59
:1001700081E49FE09093870080938600EAE8F0E0B6
:1001800080818D608083EDE7F0E0808180618083F5
:10019000479AEAE6F0E08081886080838081806809
:1001A000808389B7886089BF789411E0A0E0B1E0CE
:1001B000E6E9FAE000E00BBF02C007900D92A8301C
:1001C000B107D9F721E0A8E0B1E001C01D92A33149
:1001D000B207E1F70E94B2010C941C050C940000D8
:1001E0009FEF9ABB8299FECF8BBBAD98AD9A1BBA9D
:1001F0001ABA0895E82FF0E0EE0FFF1FE457FF4F03
:1002000085919491FC018FEF8ABB8491811103C089
:100210001BBA1ABA08958299FECF8BBBAD98AD9ADE
:100220003196F3CF0D99FECF809162008F7B809342
:1002300062008091620080648093620008959091D2
:100240000701981303C08EE48093070108951F925D
:100250000F920FB60F9211248F9382B3805882BBF6
:100260008F910F900FBE0F901F9018951F920F92B5
:100270000FB60F9211248F9389B78D7F89BFC498D1
:10028000C49A82E4809307018F910F900FBE0F9064
:100290001F9018951F920F920FB60F9211240BB654
:1002A0000F922F938F939F93EF93FF938FEF8BBBBF
:1002B0008399FECFAE9881E0982F9A95F1F7E0915F
:1002C0000C0191E09E0F90930C0199B3F0E0E75F71
:1002D000FE4F9083AE9A982F9A95F1F71BBA9091A2
:1002E0000C019330E9F49091650022E092279093FD
:1002F000650010920C0190910801992341F18091C1
:100300000901EFEBE80FE33158F4F0E0E25EFA4F59
:100310000C9413058093070180910A0180931201C8
:10032000FF91EF919F918F912F910F900BBE0F90A6
:100330000FBE0F901F9018958093070180910A01BE
:1003400090910B019093110180931001E9CF90914E
:100350006500982790936500809308018AE5809353
:100360000701DECFD1E08FB7F894E09107018FBF8E
:10037000EE34C9F3E154EA31B0F7F0E0EF5CFA4F44
:100380000C9413059091120181E0911101C080E05D
:1003900080930F0110920E0188B7826088BF809110
:1003A0000F01882391F089B7826089BF81E40E94A0
:1003B000F00080910F01805D0E94F00080E00E94BB
:1003C000FA0081E40E941F01CECF89B78D7FEDCF67
:1003D00009B601FE03C089B78D7F89BF82E00E9404
:1003E000FA008FE19EE40197F1F700C00000C59884
:1003F000C39A86E9EFE1FEE43197F1F700C000000F
:1004000090910701923409F047C0815099F7C39841
:10041000FFE728E381E0F15020408040E1F700C091
:100420000000C59AC498C49A10E000E080910201CF
:100430009091030108171907A0F0C59890910F013A
:1004400080910E01992319F1811123C088B7826030
:1004500088BF89B7826089BF83E00E94FA0082E486
:10046000B1CFCFEF809107018234B1F40E94120125
:10047000C69AC698C150B1F780910701823461F4E1
:100480000E941201C69AC6980F5F1F4FCFCF8823D4
:1004900019F310920E01E0CFC398C59890910F0107
:1004A00080910E01992361F081110CC088B78260A0
:1004B00088BF89B7826089BF84E00E94FA0053CF69
:1004C0008823D1F310920E01F7CFC0911201C2958B
:1004D000C695C770C093040183E40E94F00080E3D6
:1004E0008C0F0E94F00080E00E94FA0083E46ACF43
:1004F00080911201C1E0811101C0C0E0C0930D01E3
:1005000084E40E94F00080E38C0F0E94F00080E001
:100510000E94FA0084E456CF80911001909111015D
:10052000892B09F44AC08091100190911101811525
:10053000904108F042C08091100190911101909378
:100540000101809300011F98C098809162008E7F06
:10055000809362008091620081608093620090E0ED
:1005600080E02091000130910101082E02C03695F3
:1005700027950A94E2F720FF1CC0209162002460B6
:1005800020936200209162002260209362002091FB
:1005900062002D7F2093620001968C30910509F74F
:1005A000C0E085E40E94F0008C2F0E94FA0085E4F0
:1005B00009CF209162002B7FE3CFC1E0F2CF1F98DB
:1005C000C09A8091040182FFC9C08091620084605A
:1005D00080936200809162008260809362008091CB
:1005E00062008D7F809362008091040181FFBAC018
:1005F00080916200846080936200809162008260DA
:1006000080936200809162008D7F80936200809170
:10061000040180FFABC0809162008460809362001F
:1006200080916200826080936200809162008D7F81
:100630008093620080910D01882309F49BC0809112
:100640006200846080936200809162008260809387
:100650006200809162008D7F8093620080916200D1
:100660008460809362008091620082608093620067
:10067000809162008D7F809362008091620084602F
:10068000809362008091620082608093620080911A
:1006900062008D7F80936200809162008B7F8093E7
:1006A00062008091620082608093620080916200AB
:1006B0008D7F80936200809162008B7F80936200C7
:1006C00080916200826080936200809162008D7FE1
:1006D00080936200809162008B7F809362008091A2
:1006E0006200826080936200809162008D7F8093BF
:1006F0006200809162008B7F809362008091620033
:10070000826080936200809162008D7F809362009E
:10071000809162008B7F8093620080916200826092
:1007200080936200809162008D7F8093620080914F
:1007300062008B7F80936200809162008260809370
:100740006200809162008D7F8093620087E40E9446
:10075000F00080E00E94FA0087E434CE80916200CD
:100760008B7F36CF809162008B7F45CF8091620076
:100770008B7F54CF809162008B7F64CF8091650026
:10078000877F809365008FE99FE00197F1F700C0B4
:1007900000008091650088608093650088E40E9475
:1007A000F00080E00E94FA0088E40CCE80911201F3
:1007B000C1E0803108F053C080911201809305019F
:1007C0001F9AC0988091050180FF56C080916200F9
:1007D00084608093620080916200826080936200F6
:1007E000809162008D7F809362008091050181FF7E
:1007F00047C08091620084608093620080916200B3
:10080000826080936200809162008D7F809362009D
:100810008091050182FF38C08091620084608093DE
:100820006200809162008260809362008091620029
:100830008D7F809362008091050183FF29C08091A4
:100840006200846080936200809162008260809385
:100850006200809162008D7F80936200C0E089E435
:100860000E94F000809105018F5B0E94F0008C2FA8
:100870000E94FA0089E4A6CD809162008B7FA9CF07
:10088000809162008B7FB8CF809162008B7FC7CF51
:10089000809162008B7FD6CF8CE40E94F00010E044
:1008A00000E08091000190910101002E02C0969518
:1008B00087950A94E2F78170805D0E94F0000F5FD7
:1008C0001F4F0C30110569F780E00E94FA008CE49C
:1008D00079CD409100015091010190E080E0C0E0AD
:1008E0009A01082E02C0369527950A94E2F72170E6
:1008F000C20F01968C30910599F7809112018A30D0
:10090000E0F080911201CC23C1F08091120180911E
:100910001201C89FC001112490930301809302012A
:1009200010E08DE40E94F00081E48C0F0E94F00042
:10093000812F0E94FA008DE445CD11E0F2CF609145
:1009400000017091010130E020E080E0AB01022E57
:1009500002C0569547950A94E2F74170840F2F5FC5
:100960003F4F2C30310591F720911001309111014A
:10097000232BE1F08823D1F0209110013091110157
:100980004091100150911101849F9001859F300D7D
:1009900011243093030120930201C0E080E50E94FE
:1009A000F0008C2F0E94FA0080E50CCDC1E0F6CF5C
:1009B000809112018823B1F0809112018D3090F462
:1009C0008091120180930601C0E08FE40E94F00044
:1009D000809106018F5B0E94F0008C2F0E94FA002C
:1009E0008FE4F0CCC1E0F1CFD0930E0188B78260E4
:1009F00088BF89B7826089BF83E50E94F00080E0EC
:100A00000E94FA0083E5DECCC498C49A82E50E9475
:100A1000F00080E00E94FA0082E5D4CC85E00E94DC
:100A2000FA008AE5CFCCEE0FFF1F0024001C0BBE9E
:100A30000790F691E02D0994F894FFCF8A01AF0159
:100A40008A018A019C019001AF01AF018A019001E6
:100A50009001AF018A0190018A019C019001AF01D0
:100A6000AF01C201E801650278028C02B301DF0226
:100A7000BE03D603B301B3014C046904B301D80427
:100A80009F04B3010405F404B301B301B301B3013E
:060A9000B301B3010E05E5
:080A9600FF0FF80107010C4EEF
:00000001FF
