:100000000C945D000C94EE000C9429010C94EE000D
:100010000C943D010C94EE000C94EE000C94EE0058
:100020000C94EE000C94EE000C94EE000C94EE0098
:100030000C94EE000C94EE000C94EE000C94EE0088
:100040000C94EE000C94EE000C94EE000C94EE0078
:100050000C94EE000C94EE000C94EE000C94EE0068
:100060000C94EE000C94EE000C941A010C94EE002B
:100070000C94EE000C94EE000C94EE000C94EE0048
:100080000C94EE000C94EE000C94EE00B600B3005D
:10009000AD00A600A000980057656C636F6D650009
:1000A00041626F72740046696E69736800537461CF
:1000B0007274004E4F004F4B000011241FBECFEF53
:1000C000D0E1DEBFCDBFF894929A939A1D9A1C9A04
:1000D000A49AAC9AA59AAD9AA69AAE9AE1E6F0E0F7
:1000E000808180688083A2E6B0E08C9180688C93E8
:1000F0008081806480838C9180648C938081806215
:1001000080838C9180628C938F9A44E650E0EA0160
:10011000888181608883888182608883889A8881C9
:100120008061888385E690E0EC0128812061288346
:10013000EA01288128602883EC012881286028832F
:10014000BE9ABD9ABC9AC49ABB9ABA9AB89A179AA0
:100150008081816080838C9181608C9380818260BA
:1001600080838081846080838C9184608C93919A59
:1001700081E49FE09093870080938600EAE8F0E0B6
:1001800080818D608083EDE7F0E0808180618083F5
:10019000479AEAE6F0E08081886080838081806809
:1001A000808389B7886089BF789411E0A0E0B1E0CE
:1001B000E2E8FAE000E00BBF02C007900D92AA301F
:1001C000B107D9F721E0AAE0B1E001C01D92A33147
:1001D000B207E1F70E94A6010C9412050C940000EE
:1001E0009FEF9ABB8299FECF8BBBAD98AD9A1BBA9D
:1001F0001ABA0895E82FF0E0EE0FFF1FE457FF4F03
:1002000085919491FC018FEF8ABB8491811103C089
:100210001BBA1ABA08958299FECF8BBBAD98AD9ADE
:100220003196F3CF90910901981303C08EE4809327
:10023000090108951F920F920FB60F9211248F9308
:1002400082B3805882BB8F910F900FBE0F901F908A
:1002500018951F920F920FB60F9211248F9389B7A2
:100260008D7F89BFC498C49A82E4809309018F91DD
:100270000F900FBE0F901F9018951F920F920FB600
:100280000F9211240BB60F922F938F939F93EF939E
:10029000FF938FEF8BBB8399FECFAE9881E0982FB1
:1002A0009A95F1F7E0910E0191E09E0F90930E0167
:1002B00099B3F0E0E55FFE4F9083AE9A982F9A9540
:1002C000F1F71BBA90910E019330E9F4909165001B
:1002D00022E092279093650010920E0190910A01FE
:1002E000992349F180910B01EFEBE80FE33158F4CA
:1002F000F0E0EC5EFA4F0C94F304809309018091D6
:100300000C0180931201FF91EF919F918F912F919A
:100310000F900BBE0F900FBE0F901F90189585E4A5
:100320008093090180910C0190910D019093080137
:1003300080930701E8CF909165009827909365001E
:1003400080930A018AE580930901DDCF00D000D0B7
:100350000F92CDB7DEB78FB7F894E09109018FBF48
:10036000EE34C9F3E154EA31B0F7F0E0E95DFA4F59
:100370000C94F3049091120181E0911101C080E08E
:10038000809311011092100188B7826088BF80911C
:100390001101882391F089B7826089BF81E40E94AE
:1003A000F00080911101805D0E94F00080E00E94C9
:1003B000FA0081E40E941201CECF89B78D7FEDCF84
:1003C00009B601FE03C089B78D7F89BF82E00E9414
:1003D000FA008FE19EE40197F1F700C00000C59894
:1003E000C39A86E9EFE1FEE43197F1F700C000001F
:1003F00090910901923409F04EC0815099F7C39849
:10040000FFE728E341E0F15020404040E1F700C021
:100410000000C59AC498C49A80E090E0DC01409145
:100420000001509101016091020170910301841754
:100430009507A607B707A0F0C59890911101809184
:100440001001992319F1811123C088B7826088BFF8
:1004500089B7826089BF83E00E94FA0082E4AACF54
:10046000209109012234B9F40D99FECF2091620048
:100470002F7B209362002091620020642093620011
:10048000C69AC6980196A11DB11DC9CF882319F33C
:1004900010921001E0CFC398C598909111018091FE
:1004A0001001992361F081110CC088B7826088BF68
:1004B00089B7826089BF84E00E94FA004CCF88230C
:1004C000D1F310921001F7CF809112018295869599
:1004D000877089838093040183E40E94F0008981FE
:1004E000805D0E94F00080E00E94FA0083E462CF09
:1004F0008091120191E09983811101C01982E981F3
:10050000E0930F0184E40E94F0008981805D0E94E5
:10051000F00080E00E94FA0084E44CCF8091070153
:1005200090910801892B09F441C0809107019091B5
:10053000080181159041E8F51F98C09880916200EC
:100540008E7F809362008091620081608093620060
:1005500090E080E02091070130910801082E02C050
:10056000369527950A94E2F720FF1CC0209162007F
:100570002460209362002091620022602093620038
:10058000209162002D7F2093620001968C309105AE
:1005900009F7198285E40E94F00089810E94FA001F
:1005A00085E408CF209162002B7FE3CF21E02983EF
:1005B000F1CF41E04983EECF1F98C09A80910401AA
:1005C00082FFC9C080916200846080936200809144
:1005D0006200826080936200809162008D7F8093D0
:1005E00062008091040181FFBAC080916200846042
:1005F00080936200809162008260809362008091AB
:1006000062008D7F809362008091040180FFABC007
:1006100080916200846080936200809162008260B9
:1006200080936200809162008D7F80936200809150
:100630000F01882309F49BC080916200846080933D
:10064000620080916200826080936200809162000B
:100650008D7F80936200809162008460809362004D
:1006600080916200826080936200809162008D7F41
:100670008093620080916200846080936200809128
:100680006200826080936200809162008D7F80931F
:100690006200809162008B7F809362008091620093
:1006A000826080936200809162008D7F80936200FF
:1006B000809162008B7F80936200809162008260F3
:1006C00080936200809162008D7F809362008091B0
:1006D00062008B7F809362008091620082608093D1
:1006E0006200809162008D7F809362008091620041
:1006F0008B7F8093620080916200826080936200B1
:10070000809162008D7F80936200809162008B7F78
:100710008093620080916200826080936200809189
:1007200062008D7F80936200809162008B7F809356
:10073000620080916200826080936200809162001A
:100740008D7F8093620087E40E94F00080E00E9429
:10075000FA0087E42FCE809162008B7F36CF8091A4
:1007600062008B7F45CF809162008B7F54CF809158
:1007700062008B7F64CF80916500877F80936500E6
:100780008FE99FE00197F1F700C0000080916500BC
:1007900088608093650088E40E94F00080E00E94F9
:1007A000FA0088E407CE80911201803108F070C011
:1007B00080911201809305011F9AC09880910501D4
:1007C00080FF56C0809162008460809362008091B7
:1007D0006200826080936200809162008D7F8093CE
:1007E00062008091050181FF47C0809162008460B2
:1007F00080936200809162008260809362008091A9
:1008000062008D7F809362008091050182FF38C075
:1008100080916200846080936200809162008260B7
:1008200080936200809162008D7F8093620080914E
:10083000050183FF29C0809162008460809362007B
:1008400080916200826080936200809162008D7F5F
:1008500080936200198289E40E94F0008091050172
:100860008F5B0E94F00089810E94FA0089E4A2CD8A
:10087000809162008B7FA9CF809162008B7FB8CF7F
:10088000809162008B7FC7CF809162008B7FD6CF33
:1008900091E09983E0CF8CE40E94F00010E000E04A
:1008A0008091070190910801002E02C096958795CE
:1008B0000A94E2F78170805D0E94F0000F5F1F4F85
:1008C0000C30110569F780E00E94FA008CE472CDCB
:1008D00030E020E01D828091070190910801022EF6
:1008E00002C0969587950A94E2F781709927ED8169
:1008F000E80FED832F5F3F4F2C30310561F780917A
:1009000012018B3070F1809112018F3F51F1EE2373
:1009100041F120911201F0E8EF9FD001112430E065
:100920000E94FC0469837A838B839C83DC01CB0166
:10093000880F991FAA1FBB1F80930001909301018C
:10094000A0930201B093030110E08DE40E94F00037
:100950008D818F5B0E94F000812F0E94FA008DE450
:1009600029CD11E0F2CF809112018823B1F080915E
:1009700012018D30A8F48091120180930601198232
:100980008FE40E94F000809106018F5B0E94F000CE
:1009900089810E94FA008FE40DCD21E02983F0CFF8
:1009A00041E04983EDCF81E08093100188B78260F8
:1009B00088BF89B7826089BF83E50E94F00080E02C
:1009C0000E94FA0083E5F6CCC498C49A82E50E949E
:1009D000F00080E00E94FA0082E5ECCC85E00E9405
:1009E000FA008AE5E7CCEE0FFF1F0024001C0BBEC7
:1009F0000790F691E02D09940E940305B7FF089532
:100A0000821B930B0895A29FB001B39FC001A39FC7
:100A1000700D811D1124911DB29F700D811D112437
:100A2000911D0895F894FFCF7D01A3017D017D0103
:100A30008F018301A301A3017D0183018301A30130
:100A40007D0183017D0183018301A301A301BA011B
:100A5000E001640278028E02AB01DC02BB03D30327
:100A6000AB01AB014B046804AB01B304AB01AB01B8
:100A7000E404D304AB01AB01AB01AB01AB01AB01AF
:020A8000EE0482
:0A0A820000F8010007010CFF0F4E01
:00000001FF
